{
  "contractName": "MyToken",
  "abi": [
    {
      "anonymous": false,
      "inputs": [
        {
          "indexed": true,
          "internalType": "address",
          "name": "from",
          "type": "address"
        },
        {
          "indexed": true,
          "internalType": "address",
          "name": "to",
          "type": "address"
        },
        {
          "indexed": false,
          "internalType": "uint256",
          "name": "value",
          "type": "uint256"
        }
      ],
      "name": "Transfer",
      "type": "event"
    },
    {
      "inputs": [
        {
          "internalType": "address",
          "name": "",
          "type": "address"
        }
      ],
      "name": "balances",
      "outputs": [
        {
          "internalType": "uint256",
          "name": "",
          "type": "uint256"
        }
      ],
      "stateMutability": "view",
      "type": "function",
      "constant": true
    },
    {
      "inputs": [],
      "name": "totalSupply",
      "outputs": [
        {
          "internalType": "uint256",
          "name": "",
          "type": "uint256"
        }
      ],
      "stateMutability": "view",
      "type": "function",
      "constant": true
    },
    {
      "inputs": [
        {
          "internalType": "address[]",
          "name": "_addresses",
          "type": "address[]"
        },
        {
          "internalType": "uint256[]",
          "name": "_values",
          "type": "uint256[]"
        }
      ],
      "name": "initializeBalances",
      "outputs": [],
      "stateMutability": "nonpayable",
      "type": "function"
    },
    {
      "inputs": [
        {
          "internalType": "address",
          "name": "_to",
          "type": "address"
        },
        {
          "internalType": "uint256",
          "name": "_value",
          "type": "uint256"
        }
      ],
      "name": "transfer",
      "outputs": [
        {
          "internalType": "bool",
          "name": "",
          "type": "bool"
        }
      ],
      "stateMutability": "nonpayable",
      "type": "function"
    },
    {
      "inputs": [
        {
          "internalType": "address",
          "name": "_owner",
          "type": "address"
        }
      ],
      "name": "balanceOf",
      "outputs": [
        {
          "internalType": "uint256",
          "name": "",
          "type": "uint256"
        }
      ],
      "stateMutability": "view",
      "type": "function",
      "constant": true
    }
  ],
  "bytecode": "0x60806040526103e85f55348015610014575f80fd5b50610ad1806100225f395ff3fe608060405234801561000f575f80fd5b5060043610610055575f3560e01c806318160ddd1461005957806327e235e31461007757806370a08231146100a7578063a9059cbb146100d7578063fa9a5a5414610107575b5f80fd5b610061610123565b60405161006e919061047c565b60405180910390f35b610091600480360381019061008c9190610500565b610128565b60405161009e919061047c565b60405180910390f35b6100c160048036038101906100bc9190610500565b61013d565b6040516100ce919061047c565b60405180910390f35b6100f160048036038101906100ec9190610555565b610183565b6040516100fe91906105ad565b60405180910390f35b610121600480360381019061011c91906107d6565b610387565b005b5f5481565b6001602052805f5260405f205f915090505481565b5f60015f8373ffffffffffffffffffffffffffffffffffffffff1673ffffffffffffffffffffffffffffffffffffffff1681526020019081526020015f20549050919050565b5f8073ffffffffffffffffffffffffffffffffffffffff168373ffffffffffffffffffffffffffffffffffffffff16036101f2576040517f08c379a00000000000000000000000000000000000000000000000000000000081526004016101e9906108a6565b60405180910390fd5b8160015f3373ffffffffffffffffffffffffffffffffffffffff1673ffffffffffffffffffffffffffffffffffffffff1681526020019081526020015f20541015610272576040517f08c379a00000000000000000000000000000000000000000000000000000000081526004016102699061090e565b60405180910390fd5b8160015f3373ffffffffffffffffffffffffffffffffffffffff1673ffffffffffffffffffffffffffffffffffffffff1681526020019081526020015f205f8282546102be9190610959565b925050819055508160015f8573ffffffffffffffffffffffffffffffffffffffff1673ffffffffffffffffffffffffffffffffffffffff1681526020019081526020015f205f828254610311919061098c565b925050819055508273ffffffffffffffffffffffffffffffffffffffff163373ffffffffffffffffffffffffffffffffffffffff167fddf252ad1be2c89b69c2b068fc378daa952ba7f163c4a11628f55a4df523b3ef84604051610375919061047c565b60405180910390a36001905092915050565b80518251146103cb576040517f08c379a00000000000000000000000000000000000000000000000000000000081526004016103c290610a09565b60405180910390fd5b5f5b825181101561045f578181815181106103e9576103e8610a27565b5b602002602001015160015f85848151811061040757610406610a27565b5b602002602001015173ffffffffffffffffffffffffffffffffffffffff1673ffffffffffffffffffffffffffffffffffffffff1681526020019081526020015f2081905550808061045790610a54565b9150506103cd565b505050565b5f819050919050565b61047681610464565b82525050565b5f60208201905061048f5f83018461046d565b92915050565b5f604051905090565b5f80fd5b5f80fd5b5f73ffffffffffffffffffffffffffffffffffffffff82169050919050565b5f6104cf826104a6565b9050919050565b6104df816104c5565b81146104e9575f80fd5b50565b5f813590506104fa816104d6565b92915050565b5f602082840312156105155761051461049e565b5b5f610522848285016104ec565b91505092915050565b61053481610464565b811461053e575f80fd5b50565b5f8135905061054f8161052b565b92915050565b5f806040838503121561056b5761056a61049e565b5b5f610578858286016104ec565b925050602061058985828601610541565b9150509250929050565b5f8115159050919050565b6105a781610593565b82525050565b5f6020820190506105c05f83018461059e565b92915050565b5f80fd5b5f601f19601f8301169050919050565b7f4e487b71000000000000000000000000000000000000000000000000000000005f52604160045260245ffd5b610610826105ca565b810181811067ffffffffffffffff8211171561062f5761062e6105da565b5b80604052505050565b5f610641610495565b905061064d8282610607565b919050565b5f67ffffffffffffffff82111561066c5761066b6105da565b5b602082029050602081019050919050565b5f80fd5b5f61069361068e84610652565b610638565b905080838252602082019050602084028301858111156106b6576106b561067d565b5b835b818110156106df57806106cb88826104ec565b8452602084019350506020810190506106b8565b5050509392505050565b5f82601f8301126106fd576106fc6105c6565b5b813561070d848260208601610681565b91505092915050565b5f67ffffffffffffffff8211156107305761072f6105da565b5b602082029050602081019050919050565b5f61075361074e84610716565b610638565b905080838252602082019050602084028301858111156107765761077561067d565b5b835b8181101561079f578061078b8882610541565b845260208401935050602081019050610778565b5050509392505050565b5f82601f8301126107bd576107bc6105c6565b5b81356107cd848260208601610741565b91505092915050565b5f80604083850312156107ec576107eb61049e565b5b5f83013567ffffffffffffffff811115610809576108086104a2565b5b610815858286016106e9565b925050602083013567ffffffffffffffff811115610836576108356104a2565b5b610842858286016107a9565b9150509250929050565b5f82825260208201905092915050565b7f496e76616c6964206164647265737300000000000000000000000000000000005f82015250565b5f610890600f8361084c565b915061089b8261085c565b602082019050919050565b5f6020820190508181035f8301526108bd81610884565b9050919050565b7f496e73756666696369656e742062616c616e63650000000000000000000000005f82015250565b5f6108f860148361084c565b9150610903826108c4565b602082019050919050565b5f6020820190508181035f830152610925816108ec565b9050919050565b7f4e487b71000000000000000000000000000000000000000000000000000000005f52601160045260245ffd5b5f61096382610464565b915061096e83610464565b92508282039050818111156109865761098561092c565b5b92915050565b5f61099682610464565b91506109a183610464565b92508282019050808211156109b9576109b861092c565b5b92915050565b7f4172726179206c656e67746873206d69736d61746368000000000000000000005f82015250565b5f6109f360168361084c565b91506109fe826109bf565b602082019050919050565b5f6020820190508181035f830152610a20816109e7565b9050919050565b7f4e487b71000000000000000000000000000000000000000000000000000000005f52603260045260245ffd5b5f610a5e82610464565b91507fffffffffffffffffffffffffffffffffffffffffffffffffffffffffffffffff8203610a9057610a8f61092c565b5b60018201905091905056fea264697066735822122023cbdd4f0ecde9c9b1d12de0223252b312d2ecc8a2937ab509d8ec709e33ed7e64736f6c63430008150033",
  "immutableReferences": {},
  "source": "// SPDX-License-Identifier: MIT\npragma solidity >=0.5.0 < 0.9.0;\n\ncontract MyToken {\n    // string public name;\n    // string public symbol;\n    uint256 public totalSupply=1000;\n    mapping(address => uint256) public balances;\n\n    event Transfer(address indexed from, address indexed to, uint256 value);\n\n    // constructor(string memory _name, string memory _symbol, uint256 _initialSupply) {\n    //     name = _name;\n    //     symbol = _symbol;\n    //     totalSupply = _initialSupply;\n    //     balances[msg.sender] = _initialSupply;\n    // }\n\n    function initializeBalances(address[] memory _addresses, uint256[] memory _values) external {\n        require(_addresses.length == _values.length, \"Array lengths mismatch\");\n\n        for (uint256 i = 0; i < _addresses.length; i++) {\n            balances[_addresses[i]] = _values[i];\n        }\n    }\n\n    function transfer(address _to, uint256 _value) external returns (bool) {\n        require(_to != address(0), \"Invalid address\");\n        require(balances[msg.sender] >= _value, \"Insufficient balance\");\n\n        balances[msg.sender] -= _value;\n        balances[_to] += _value;\n        emit Transfer(msg.sender, _to, _value);\n        return true;\n    }\n\n    function balanceOf(address _owner) external view returns (uint256) {\n        return balances[_owner];\n    }\n}",
  "sourcePath": "/home/lia/Documents/CODES/GIT/Projects/TokenTransfer_Truffle_DApp/contracts/MyToken.sol",
  "compiler": {
    "name": "solc",
    "version": "0.8.21+commit.d9974bed.Emscripten.clang"
  },
  "schemaVersion": "3.4.16",
  "updatedAt": "2023-12-25T17:36:39.226Z",
  "networkType": "ethereum",
  "devdoc": {
    "kind": "dev",
    "methods": {},
    "version": 1
  },
  "userdoc": {
    "kind": "user",
    "methods": {},
    "version": 1
  }
}