{
  "contractName": "MyToken",
  "abi": [
    {
      "inputs": [],
      "stateMutability": "nonpayable",
      "type": "constructor"
    },
    {
      "anonymous": false,
      "inputs": [
        {
          "indexed": true,
          "internalType": "address",
          "name": "participant",
          "type": "address"
        },
        {
          "indexed": false,
          "internalType": "uint256",
          "name": "value",
          "type": "uint256"
        }
      ],
      "name": "AdditionalBalanceEarned",
      "type": "event"
    },
    {
      "anonymous": false,
      "inputs": [
        {
          "indexed": true,
          "internalType": "address",
          "name": "from",
          "type": "address"
        },
        {
          "indexed": true,
          "internalType": "address",
          "name": "to",
          "type": "address"
        },
        {
          "indexed": false,
          "internalType": "uint256",
          "name": "value",
          "type": "uint256"
        }
      ],
      "name": "Transfer",
      "type": "event"
    },
    {
      "inputs": [
        {
          "internalType": "address",
          "name": "",
          "type": "address"
        }
      ],
      "name": "balances",
      "outputs": [
        {
          "internalType": "uint256",
          "name": "",
          "type": "uint256"
        }
      ],
      "stateMutability": "view",
      "type": "function",
      "constant": true
    },
    {
      "inputs": [],
      "name": "totalSupply",
      "outputs": [
        {
          "internalType": "uint256",
          "name": "",
          "type": "uint256"
        }
      ],
      "stateMutability": "view",
      "type": "function",
      "constant": true
    },
    {
      "inputs": [
        {
          "internalType": "uint256",
          "name": "_value",
          "type": "uint256"
        }
      ],
      "name": "earnAdditionalBalance",
      "outputs": [],
      "stateMutability": "nonpayable",
      "type": "function"
    },
    {
      "inputs": [
        {
          "internalType": "address",
          "name": "_to",
          "type": "address"
        },
        {
          "internalType": "uint256",
          "name": "_value",
          "type": "uint256"
        }
      ],
      "name": "transfer",
      "outputs": [
        {
          "internalType": "bool",
          "name": "",
          "type": "bool"
        }
      ],
      "stateMutability": "nonpayable",
      "type": "function"
    },
    {
      "inputs": [
        {
          "internalType": "address",
          "name": "_owner",
          "type": "address"
        }
      ],
      "name": "balanceOf",
      "outputs": [
        {
          "internalType": "uint256",
          "name": "",
          "type": "uint256"
        }
      ],
      "stateMutability": "view",
      "type": "function",
      "constant": true
    }
  ],
  "bytecode": "0x60806040526103e85f55348015610014575f80fd5b50600560015f3373ffffffffffffffffffffffffffffffffffffffff1673ffffffffffffffffffffffffffffffffffffffff1681526020019081526020015f2081905550610754806100655f395ff3fe608060405234801561000f575f80fd5b5060043610610055575f3560e01c806318160ddd1461005957806327e235e31461007757806370a08231146100a7578063a9059cbb146100d7578063bd7602f914610107575b5f80fd5b610061610123565b60405161006e9190610443565b60405180910390f35b610091600480360381019061008c91906104ba565b610128565b60405161009e9190610443565b60405180910390f35b6100c160048036038101906100bc91906104ba565b61013d565b6040516100ce9190610443565b60405180910390f35b6100f160048036038101906100ec919061050f565b610183565b6040516100fe9190610567565b60405180910390f35b610121600480360381019061011c9190610580565b610387565b005b5f5481565b6001602052805f5260405f205f915090505481565b5f60015f8373ffffffffffffffffffffffffffffffffffffffff1673ffffffffffffffffffffffffffffffffffffffff1681526020019081526020015f20549050919050565b5f8073ffffffffffffffffffffffffffffffffffffffff168373ffffffffffffffffffffffffffffffffffffffff16036101f2576040517f08c379a00000000000000000000000000000000000000000000000000000000081526004016101e990610605565b60405180910390fd5b8160015f3373ffffffffffffffffffffffffffffffffffffffff1673ffffffffffffffffffffffffffffffffffffffff1681526020019081526020015f20541015610272576040517f08c379a00000000000000000000000000000000000000000000000000000000081526004016102699061066d565b60405180910390fd5b8160015f3373ffffffffffffffffffffffffffffffffffffffff1673ffffffffffffffffffffffffffffffffffffffff1681526020019081526020015f205f8282546102be91906106b8565b925050819055508160015f8573ffffffffffffffffffffffffffffffffffffffff1673ffffffffffffffffffffffffffffffffffffffff1681526020019081526020015f205f82825461031191906106eb565b925050819055508273ffffffffffffffffffffffffffffffffffffffff163373ffffffffffffffffffffffffffffffffffffffff167fddf252ad1be2c89b69c2b068fc378daa952ba7f163c4a11628f55a4df523b3ef846040516103759190610443565b60405180910390a36001905092915050565b8060015f3373ffffffffffffffffffffffffffffffffffffffff1673ffffffffffffffffffffffffffffffffffffffff1681526020019081526020015f205f8282546103d391906106eb565b925050819055503373ffffffffffffffffffffffffffffffffffffffff167f46af6844f782332bbec50a815c6229080d2c350db14cacd0ee00bcdfc5edb377826040516104209190610443565b60405180910390a250565b5f819050919050565b61043d8161042b565b82525050565b5f6020820190506104565f830184610434565b92915050565b5f80fd5b5f73ffffffffffffffffffffffffffffffffffffffff82169050919050565b5f61048982610460565b9050919050565b6104998161047f565b81146104a3575f80fd5b50565b5f813590506104b481610490565b92915050565b5f602082840312156104cf576104ce61045c565b5b5f6104dc848285016104a6565b91505092915050565b6104ee8161042b565b81146104f8575f80fd5b50565b5f81359050610509816104e5565b92915050565b5f80604083850312156105255761052461045c565b5b5f610532858286016104a6565b9250506020610543858286016104fb565b9150509250929050565b5f8115159050919050565b6105618161054d565b82525050565b5f60208201905061057a5f830184610558565b92915050565b5f602082840312156105955761059461045c565b5b5f6105a2848285016104fb565b91505092915050565b5f82825260208201905092915050565b7f496e76616c6964206164647265737300000000000000000000000000000000005f82015250565b5f6105ef600f836105ab565b91506105fa826105bb565b602082019050919050565b5f6020820190508181035f83015261061c816105e3565b9050919050565b7f496e73756666696369656e742062616c616e63650000000000000000000000005f82015250565b5f6106576014836105ab565b915061066282610623565b602082019050919050565b5f6020820190508181035f8301526106848161064b565b9050919050565b7f4e487b71000000000000000000000000000000000000000000000000000000005f52601160045260245ffd5b5f6106c28261042b565b91506106cd8361042b565b92508282039050818111156106e5576106e461068b565b5b92915050565b5f6106f58261042b565b91506107008361042b565b92508282019050808211156107185761071761068b565b5b9291505056fea26469706673582212201d2802287f9210f181db0e93081e46467c6b5a8cac1acf76032869d607ab242664736f6c63430008150033",
  "immutableReferences": {},
  "source": "// SPDX-License-Identifier: MIT\npragma solidity >=0.5.0 <0.9.0;\n\ncontract MyToken {\n    uint256 public totalSupply = 1000;\n    mapping(address => uint256) public balances;\n\n    event Transfer(address indexed from, address indexed to, uint256 value);\n    event AdditionalBalanceEarned(address indexed participant, uint256 value);\n\n    constructor() {\n        // Initialize anyone interacting with the contract with a balance of 5 tokens\n        balances[msg.sender] = 5;\n    }\n\n    function earnAdditionalBalance(uint256 _value) external {\n        balances[msg.sender] += _value;\n        emit AdditionalBalanceEarned(msg.sender, _value);\n    }\n\n    function transfer(address _to, uint256 _value) external returns (bool) {\n        require(_to != address(0), \"Invalid address\");\n        require(balances[msg.sender] >= _value, \"Insufficient balance\");\n\n        balances[msg.sender] -= _value;\n        balances[_to] += _value;\n        emit Transfer(msg.sender, _to, _value);\n        return true;\n    }\n\n    function balanceOf(address _owner) external view returns (uint256) {\n        return balances[_owner];\n    }\n}\n",
  "sourcePath": "/home/lia/Documents/CODES/GIT/Projects/TokenTransfer_Truffle_DApp/contracts/MyToken.sol",
  "compiler": {
    "name": "solc",
    "version": "0.8.21+commit.d9974bed.Emscripten.clang"
  },
  "schemaVersion": "3.4.16",
  "updatedAt": "2023-12-28T06:43:16.871Z",
  "networkType": "ethereum",
  "devdoc": {
    "kind": "dev",
    "methods": {},
    "version": 1
  },
  "userdoc": {
    "kind": "user",
    "methods": {},
    "version": 1
  }
}